:100000000C9435000C942C090C945D000C945D004C
:100010000C945D000C945D000C945D000C945D00EC
:100020000C945D000C945D000C945D000C9414091C
:100030000C94EA080C945D000C945D000C945D0037
:100040000C9448080C945D000C94B8080C94920829
:100050000C945D000C945D000C945D000C945D00AC
:100060000C945D000C945D00520911241FBECFEF6B
:10007000D8E0DEBFCDBF24E0A4EFB2E001C01D9206
:10008000A930B207E1F712E0A0E0B1E0E8EBFEE151
:1000900002C005900D92A43FB107D9F710E0C5E367
:1000A000D0E004C02197FE010E94170DC433D10790
:1000B000C9F70E94280A0C945A0F0C940000CF93A1
:1000C000DF9310928000C1E8D0E018821092850082
:1000D00010928400BC01990F880B990B0E94D80BD9
:1000E00020E030E04AE754E40E948A0D20E034E248
:1000F00044E756E40E94370C20E030E040E85FE33C
:100100000E941D0D0E94FC0D709389006093880071
:10011000888188608883EFE6F0E080818260808358
:10012000888185608883DF91CF910895CF92DF9297
:10013000EF92FF926B017C016091880070918900C1
:1001400090E080E00E94D60BA70196010E94370C38
:100150000E94FC0D70938B0060938A00EFE6F0E044
:10016000808184608083FF90EF90DF90CF9008952E
:10017000FC01AC014A5F5F4F8FEF9FEF2191822717
:1001800028E030E0BC016170772796958795672B52
:1001900021F061E0862760EA96272150310991F726
:1001A000E417F50759F708952FB7F8946091FB020B
:1001B0007091FC028091FD029091FE022FBF089584
:1001C000AF92BF92CF92DF92EF92FF920F931F9365
:1001D000CF93DF936C017B018B01040F151FEB01A3
:1001E0005E01AE18BF08C017D10759F06991D6015A
:1001F000ED91FC910190F081E02DC6010995892BCC
:1002000079F7C501DF91CF911F910F91FF90EF908A
:10021000DF90CF90BF90AF900895FC01538D448D37
:10022000252F30E0842F90E0821B930B541710F0A1
:10023000CF96089501970895FC01918D828D9817AE
:1002400061F0A28DAE0FBF2FB11D5D968C91928D86
:100250009F5F9F73928F90E008958FEF9FEF0895B7
:10026000FC01918D828D981731F0828DE80FF11D80
:10027000858D90E008958FEF9FEF0895FC01918D9B
:10028000228D892F90E0805C9F4F821B91098F7394
:1002900099270895FC01A48DA80FB92FB11DA35A69
:1002A000BF4F2C91848D90E001968F739927848F96
:1002B000A689B7892C93A089B1898C9183708064B9
:1002C0008C93938D848D981306C00288F389E02D5A
:1002D00080818F7D80830895EF92FF920F931F930B
:1002E000CF93DF93EC0181E0888F9B8D8C8D9813E9
:1002F0001AC0E889F989808185FF15C09FB7F894F5
:10030000EE89FF896083E889F98980818370806440
:1003100080839FBF81E090E0DF91CF911F910F918B
:10032000FF90EF900895F62E0B8D10E00F5F1F4F9A
:100330000F731127E02E8C8D8E110CC00FB607FCA9
:10034000FACFE889F989808185FFF5CFCE010E9437
:100350004A01F1CFEB8DEC0FFD2FF11DE35AFF4F5A
:10036000F0829FB7F8940B8FEA89FB8980818062C5
:10037000CFCFCF93DF93EC01888D8823B9F0AA8982
:10038000BB89E889F9898C9185FD03C0808186FD50
:100390000DC00FB607FCF7CF8C9185FFF2CF80819F
:1003A00085FFEDCFCE010E944A01E9CFDF91CF91C9
:1003B00008950F931F93CF93DF93EC01CB01BA0104
:1003C000A90198010E941D0D2A813B814C815D810C
:1003D0000E94370CDF91CF911F910F9108954F929A
:1003E0005F926F927F928F929F92AF92BF92CF92C5
:1003F000DF92EF92FF920F931F93CF93DF93EC0165
:100400000E94D4006B017C01C886D986EA86FB86EF
:1004100083B19881892321E009F420E033B18C81F4
:10042000821769F08A819B814981342341E009F474
:1004300040E0421709F454C001969B838A832C83C1
:100440008C859D85AE85BF8546015701881A990A1E
:10045000AA0ABB0A84E688169104A104B10478F1C3
:100460000A811B818E819F81B801681B790B072E41
:10047000000C880B990B0E94D80B2B013C01C50185
:10048000B4010E94D60B9B01AC01C301B2010E94D2
:100490008A0D20E030E64AE657E40E94370C20E05F
:1004A00030E04FEA54E40E948A0D688B798B8A8B86
:1004B0009B8B1F830E83CC86DD86EE86FF86DF91C5
:1004C000CF911F910F91FF90EF90DF90CF90BF9051
:1004D000AF909F908F907F906F905F904F90089516
:1004E0000197ABCFFC0195B180818095892385B9B7
:1004F0000895FC0194B18081892B84B90895FC0191
:1005000084B190819095982394B995B18081892B7D
:1005100085B908950895089508950895089510924D
:100520009E03089581E080939E0308958F929F9289
:10053000AF92BF92CF92DF92EF92FF920F931F93F1
:10054000CF93DF93EC01CB01BA01A90198010E947E
:100550001D0D6B017C0120E030E040E85FE36E8917
:100560007F89888D998D0E94D10B87FF14C02A89BD
:100570003B894C895D89C701B6010E94370C9B01FC
:10058000AC016E857F85888999890E941E0D6E87D2
:100590007F87888B998B8A849B84AC84BD84A701D8
:1005A0009601C501B4010E94370C6B017C01CA821F
:1005B000DB82EC82FD822E853F8548895989C50101
:1005C000B4010E94370C2A8D3B8D4C8D5D8D0E94AD
:1005D0008A0D9B01AC012E833F8348875987C70151
:1005E000B6010E941E0D6E8B7F8B888F998FDF91D5
:1005F000CF911F910F91FF90EF90DF90CF90BF9020
:10060000AF909F908F900895DC018D919C91DC01BB
:10061000ED91FC910284F385E02D0994CF93DF9353
:10062000EC0160E070E0CB010E94960080919F0396
:10063000833641F410929E038A819B81DF91CF9192
:100640000C940403DF91CF910895CF93DF93EC01D5
:100650006CEA75EC87E297E30E94960080919F0315
:100660008F3611F0823721F48A819B810E94040326
:1006700080919E03882369F0EA81FB8180819181CA
:10068000DC01ED91FC910484F585E02DDF91CF91A3
:100690000994DF91CF910895FC0101900020E9F7C2
:1006A0003197AF01481B590BBC018FEF92E00C94BE
:1006B000E0008F929F92AF92BF920F931F93CF93C0
:1006C000DF93CDB7DEB7A1970FB6F894DEBF0FBEAC
:1006D000CDBF19A2423008F44AE08E010F5D1F4FD2
:1006E000842E912CB12CA12CA50194010E94F50C13
:1006F000E62FB901CA01EA30F4F4E05DD801EE93C7
:100700008D01232B242B252B79F790E080E0109787
:1007100019F0CD010E944C03A1960FB6F894DEBFEC
:100720000FBECDBFDF91CF911F910F91BF90AF90C2
:100730009F908F900895E95CE1CFCF93DF930E9463
:100740004C03EC0184E791E00E944C038C0F9D1F49
:10075000DF91CF91089587E791E00E949D0360E0CB
:1007600070E0CB010C949600CF93DF9382EA91E086
:100770000E949D0380E991E00E949D03CCE9D3E0B3
:1007800018821A8290E080E00E945F008BEC93E078
:100790000E947F028CEC93E00E947F021EAA1DAA99
:1007A0001FAA18AE19AE1AAE1BAE1CAE1DAE1EAE01
:1007B0001092DB031092DC031092DD031092DE0333
:1007C00088EC93E00E9479028AEC93E00E9479021F
:1007D0008AE090E00E945F0087EC93E00E947F0235
:1007E00067E177EB81ED98E30E94960088EC93E057
:1007F000DF91CF910C9472028FE991E00E949D03EA
:1008000084EB91E00E949D0381E080939C03089516
:100810000F931F93CF93DF938C0189EC91E00E949B
:100820009D03CCE9D3E0188281E089831A828BECA6
:1008300093E00E947F028CEC93E00E947F021EAA4C
:100840001DAA1FAA18AE19AE1AAE1BAE1CAE1DAE65
:100850001EAE1092DB031092DC031092DD031092A7
:10086000DE0388EC93E00E9479028AEC93E00E9418
:1008700079028AE090E00E945F00F8018281938112
:10088000DF91CF911F910F910C9404030F931F934D
:10089000CF93DF938C01EB0184ED91E00E949D03E7
:1008A000D8018D919C91009799F0DC01ED91FC911C
:1008B0000084F185E02D0995F801808191810097F0
:1008C00039F0DC01ED91FC910280F381E02D099576
:1008D000F801D183C0831B830A83E881F9810680F4
:1008E000F781E02DCE01DF91CF911F910F910994F7
:1008F0004F925F926F927F928F929F92AF92BF9230
:10090000CF92DF92EF92FF920F931F93CF936B01E1
:100910007C01742EAC019B010E94300E882399F05B
:1009200088EE91E0CF911F910F91FF90EF90DF90B3
:10093000CF90BF90AF909F908F907F906F905F907F
:100940004F900C944C0346015701E894B7F82FEFF1
:100950003FEF4FE75FE7C501B4010E94300E811100
:100960000DC02FEF3FEF4FE75FE7C501B4010E94D5
:10097000D10B18161CF48CEE91E0D4CF2FEF3FEF83
:100980004FE75FE4C701B6010E942B0E18161CF456
:1009900080EF91E0C7CF2FEF3FEF4FE75FECC7014C
:1009A000B6010E94D10B87FDF3CF20E030E0A90112
:1009B000C701B6010E94D10B10E000E087FF0AC01A
:1009C0006DE28FEF92E00E946C018C01F7FAF094D7
:1009D000F7F8F094C0E060E070E080E09FE37C1600
:1009E00041F020E030E040E251E40E948A0DCF5F08
:1009F000F6CFA70196010E941E0D2B013C010E941B
:100A0000FC0D4B015C014AE00E9459037C01E00EA1
:100A1000F11ECC23C1F1C501B4010E94D60B9B018C
:100A2000AC01C301B2010E941D0D4B015C016EE2DD
:100A30008FEF92E00E946C01E80EF91EC15018F190
:100A400020E030E040E251E4C501B4010E94370CDF
:100A50002B013C010E94FC0D4B01B12CA12C4AE062
:100A6000C501B4010E945903E80EF91EC501B40185
:100A70000E94D60B9B01AC01C301B2010E941D0D67
:100A80004B015C01DBCFC701CF911F910F91FF900C
:100A9000EF90DF90CF90BF90AF909F908F907F901E
:100AA0006F905F904F900895CF93DF930E947804EA
:100AB000EC0184E791E00E944C038C0F9D1FDF91B5
:100AC000CF910895CF92DF92EF92FF920F931F93F1
:100AD000CF93DF93EC0123B18091BE039091BF03CC
:100AE0003091C703232309F0F8C001969093BF0308
:100AF0008093BE038091BE039091BF03C3975CF0C7
:100B000084EF91E00E949D031092BF031092BE03F8
:100B100081E080939E0380919F038D7F803721F435
:100B20008A819B810E94040380919E03882321F087
:100B30008A819B810E940403C090DB03D090DC0378
:100B4000E090DD03F090DE0320E030E0A901C70172
:100B5000B6010E942B0E181624F0F7FAF094F7F85D
:100B6000F094C092AC03D092AD03E092AE03F09249
:100B7000AF036091A8037091A9038091AA0390919B
:100B8000AB032091C103222309F4ADC09701860174
:100B9000AB01BC0181EE93E00E9496026093B40326
:100BA0007093B5038093B6039093B703C090B403DA
:100BB000D090B503E090B603F090B70320E030E0AA
:100BC000A901C701B6010E94D10B87FD9DC027E78F
:100BD0003EEB4FE75FE3C701B6010E942B0E1816EC
:100BE00044F487E7C82E8EEBD82E8FE7E82E8FE3EC
:100BF000F82EC092B403D092B503E092B603F092FF
:100C0000B703C092B003D092B103E092B203F09266
:100C1000B303C701B6010E9496000E94D400C090A1
:100C2000BA03D090BB03E090BC03F090BD036C19F5
:100C30007D098E099F096A3F71058105910508F4B8
:100C400040C08AEF91E00E944C0383E092E00E9452
:100C50004C036091A8037091A9038091AA0390911D
:100C6000AB0342E00E94780489E092E00E944C03CA
:100C70006091AC037091AD038091AE039091AF038E
:100C800042E00E94780482E192E00E944C038CE1F1
:100C900092E00E944C036091B0037091B103809187
:100CA000B2039091B30342E050E00E9454050E94C9
:100CB000D4006093BA037093BB038093BC039093FA
:100CC000BD038BEC93E0DF91CF911F910F91FF90CB
:100CD000EF90DF90CF900C94EF01181619060CF0EE
:100CE00009CF0A9703CFA70196010E941D0D9B0112
:100CF000AC01609101047091020480910304909111
:100D000004040E94370C4ACFC12CD12C760171CF3C
:100D1000CF93DF93FC01C281D38180919C03882310
:100D200079F084E090E00E94350E22E331E0FC018E
:100D300031832083BC01CE01DF91CF910C94460416
:100D400084E090E00E94350E2EE131E0F0CF0F9369
:100D50001F93CF93DF93EC0180919F03803799F429
:100D60008AE292E00E949D030A811B8184E090E068
:100D70000E94350E22E331E0FC0131832083BC0167
:100D8000C8010E94460480919F03823799F487E34B
:100D900092E00E949D030A811B8184E090E00E9402
:100DA000350E26E431E0FC0131832083BC01C8010B
:100DB0000E94460480919E038823D1F010929C03E8
:100DC00083E492E00E949D030A80DB81C02D84E0D1
:100DD00090E00E94350E2AE031E0FC01318320834F
:100DE000BC01CE01DF91CF911F910F910C9446046D
:100DF000DF91CF911F910F910895CF92DF92EF92E3
:100E0000FF92CF93DF93EC0180919F038F3699F48B
:100E100087E692E00E949D03EA80FB8084E090E0F8
:100E20000E94350E2EE131E0FC0131832083BC01AC
:100E3000C7010E94460480919F03823799F487E39B
:100E400092E00E949D03EA80FB8084E090E00E9493
:100E5000350E26E431E0FC0131832083BC01C7015B
:100E60000E94460480919E038823B9F081E080931C
:100E70009C0383E792E00E949D030A80DB81C02DE2
:100E800084E090E00E94350E2AE031E0FC013183DD
:100E90002083BC01CE010E94460480919F038733CA
:100EA00031F52FE632E143E85AE36091A0037091F7
:100EB000A1038091A2039091A3030E941E0D609351
:100EC000A0037093A1038093A2039093A30388E9E6
:100ED00092E00E944C036091A0037091A103809165
:100EE000A2039091A30343E050E00E945405809137
:100EF0009F03813379F52FE632E143E85AE36091AD
:100F0000A0037091A1038091A2039091A3030E947A
:100F10001D0D6B017C0120E030E0A9010E942B0E29
:100F20001816C4F4C092A003D092A103E092A203C9
:100F3000F092A30388E992E00E944C036091A00321
:100F40007091A1038091A2039091A30343E050E02C
:100F50000E94540580919F03893331F52AE037EDD3
:100F600043E25CE36091A4037091A5038091A60322
:100F70009091A7030E941E0D6093A4037093A50394
:100F80008093A6039093A7038EE992E00E944C03FE
:100F90006091A4037091A5038091A6039091A7038B
:100FA00043E050E00E94540580919F03833379F51C
:100FB0002AE037ED43E25CE36091A4037091A5035E
:100FC0008091A6039091A7030E941D0D6B017C01E7
:100FD00020E030E0A9010E942B0E1816C4F4C09244
:100FE000A403D092A503E092A603F092A7038EE992
:100FF00092E00E944C036091A4037091A50380913C
:10100000A6039091A70343E050E00E94540580910D
:101010009F038936A9F48091C10391E089278093C9
:10102000C103882351F084EA92E0DF91CF91FF90D1
:10103000EF90DF90CF900C949D0388EB92E0F5CF7A
:10104000DF91CF91FF90EF90DF90CF900895CF93F5
:10105000DF93EC018BEC92E00E949D030A80DB8120
:10106000C02D84E090E00E94350E22E331E0FC01C7
:1010700031832083BC01CE01DF91CF910C944604D3
:101080000C94D10E0C94D10E0C94D10E0C94D10E64
:101090001F920F920FB60F9211242F933F938F93AD
:1010A0009F93AF93BF938091FB029091FC02A0911C
:1010B000FD02B091FE023091FA0223E0230F2D379A
:1010C00058F50196A11DB11D2093FA028093FB02F1
:1010D0009093FC02A093FD02B093FE028091F60271
:1010E0009091F702A091F802B091F9020196A11D2A
:1010F000B11D8093F6029093F702A093F802B0938B
:10110000F902BF91AF919F918F913F912F910F90D5
:101110000FBE0F901F90189526E8230F0296A11D71
:10112000B11DD2CF1F920F920FB60F9211242F93A1
:101130003F934F935F936F937F938F939F93AF935F
:10114000BF93EF93FF938FEF92E00E944A01FF91CC
:10115000EF91BF91AF919F918F917F916F915F912F
:101160004F913F912F910F900FBE0F901F901895A8
:101170001F920F920FB60F9211242F938F939F936C
:10118000EF93FF93E0910F03F09110038081E091C2
:101190001503F091160382FD1BC090818091180306
:1011A0008F5F8F7320911903821741F0E09118032C
:1011B000F0E0E150FD4F958F80931803FF91EF9180
:1011C0009F918F912F910F900FBE0F901F901895A8
:1011D0008081F4CF1F920F920FB60F9211242F939C
:1011E0003F934F935F936F937F938F939F93AF93AF
:1011F000BF93EF93FF938AEC93E00E94720280EE1C
:1012000093E00E947202FF91EF91BF91AF919F9185
:101210008F917F916F915F914F913F912F910F909F
:101220000FBE0F901F9018951F920F920FB60F923E
:1012300011248F939F9385B19091CA03892B85B90F
:1012400085B19091E003892B85B99F918F910F9083
:101250000FBE0F901F9018951F920F920FB60F920E
:1012600011242F933F934F935F936F937F938F93AB
:101270009F93AF93BF93EF93FF938BEC93E00E9408
:10128000EF01FF91EF91BF91AF919F918F917F916E
:101290006F915F914F913F912F910F900FBE0F90E3
:1012A0001F9018950F931F93EFEFF2E013821282B5
:1012B00088EE93E0A0E0B0E084839583A683B783B3
:1012C0008AE591E09183808385EC90E0958784871F
:1012D00084EC90E09787868780EC90E0918B808B00
:1012E00081EC90E0938B828B82EC90E0958B848BE9
:1012F00086EC90E0978B868B118E128E138E148E57
:10130000ECE9F3E082E490E6A5EEBBE38483958309
:10131000A683B7838DE39AE0A7E5BEE38087918734
:10132000A287B3871486158616861786108A118AB7
:10133000128A138A148A158A168A178A108E118EB9
:10134000128E138E81E190E0958F848F168E178E0A
:1013500010A211A213A212A214A291E095A316A2A8
:1013600017A210A611A688E083A794A792E096A7DB
:1013700087A780E180AB12AA11AA13AA14AA16AA01
:1013800015AA17AA10AE11AE12AE13AE14AE15AE5A
:1013900016AE1092DB031092DC031092DD03109264
:1013A000DE0352985A9AA9E6B0E08C9181608C9342
:1013B000E89A789480E28093E003408551856285C5
:1013C000738584819581A681B78122E731E03093CE
:1013D000E2032093E1038093EB039093EC03A0934B
:1013E000ED03B093EE031092EF031092F00310920E
:1013F000F1031092F20306EA1BE924E43BE30093B5
:10140000F3031093F4032093F5033093F603109243
:10141000F7031092F8031092F9031092FA03409325
:10142000FB035093FC036093FD037093FE032CE6D3
:1014300031E0309300042093FF03809301049093E4
:101440000204A0930304B09304041F910F91089524
:10145000CF93DF93CDB7DEB728970FB6F894DEBFF2
:101460000FBECDBF789484B5826084BD84B58160A1
:1014700084BD85B5826085BD85B5816085BD80915F
:101480006E00816080936E001092810080918100D7
:1014900082608093810080918100816080938100CF
:1014A000809180008160809380008091B100846091
:1014B0008093B1008091B00081608093B0008091F2
:1014C0007A00846080937A0080917A0082608093B1
:1014D0007A0080917A00816080937A0080917A000E
:1014E000806880937A001092C100E0910F03F09120
:1014F000100382E08083E0910B03F0910C031082D3
:10150000E0910D03F0910E0380E1808310921703A8
:10151000E0911303F091140386E08083E0911103BE
:10152000F0911203808180618083E0911103F0913A
:101530001203808188608083E0911103F09112038F
:10154000808180688083E0911103F0911203808193
:101550008F7D80832FEF33ED80E32150304080403A
:10156000E1F700C0000084E090E00E94350E7C01AD
:1015700086E491E0D7018D939C9382E090E00E94F5
:10158000350E8C01FC0111821082B7010E944604C5
:101590001093F5020093F40280E090E0A0E7B2E43B
:1015A0008093A8039093A903A093AA03B093AB03DD
:1015B000789480E3A82E6E01F9E0CF0ED11C9FE64F
:1015C000992E23E6B22E32E7832E40E7742EE09167
:1015D000F402F091F50280819181DC01ED91FC91A2
:1015E0000480F581E02D0995A0929F03EFEDFEE2C6
:1015F0003197F1F700C000008FEF92E00E943E01AA
:10160000892B29F38E010F5F1F4FF02EE12E0E94D0
:10161000D4006093070370930803809309039093A9
:101620000A038FEF92E00E941C0197FFA9C00E945D
:10163000D400209107033091080340910903509191
:101640000A03621B730B840B950B209103033091EB
:101650000403409105035091060362177307840742
:101660009507F8F22981213009F0B1CFFFEF31EE73
:1016700084E0F15030408040E1F700C000008A81F2
:10168000863009F0A4CF8B819C81982789279827E1
:10169000009749F56D817E817627672776276F3F12
:1016A000710511F008F093CF90E080E00E94D60B16
:1016B0006093A8037093A9038093AA039093AB034C
:1016C0008F2D9E2D0E94B8002F81291380CF9885E1
:1016D00098137DCF48E050E06F2D7E2D8FEF92E084
:1016E0000E94E00074CF019709F071CF8D819E8137
:1016F000982789279827AC0141505109423051055C
:1017000098F04F5751094330510508F060CF8038A9
:10171000910509F03DC080919E03882371F1B0923C
:101720009F0320939C030AC0019721F580919E039B
:101730008823E9F0B0929F0310929C038F2D9E2D79
:101740000E94B8002F81291342CF988598133FCF6C
:1017500048E050E06F2D7E2D8FEF92E00E94E00078
:101760008091F4029091F5020E94040330CF909290
:101770009F03E4CF20939E03E1CF70929F03DECFBF
:10178000D8018D938D01AC15BD0509F040CF6ACF0E
:101790008138910519F08238910581F680929F0376
:1017A000CDCF0E94130C08F481E00895E89409C09D
:1017B00097FB3EF490958095709561957F4F8F4F84
:1017C0009F4F9923A9F0F92F96E9BB279395F6959A
:1017D000879577956795B795F111F8CFFAF4BB0F18
:1017E00011F460FF1BC06F5F7F4F8F4F9F4F16C07C
:1017F000882311F096E911C0772321F09EE8872F06
:10180000762F05C0662371F096E8862F70E060E0C1
:101810002AF09A95660F771F881FDAF7880F96953A
:10182000879597F90895990F0008550FAA0BE0E8DE
:10183000FEEF16161706E807F907C0F01216130692
:10184000E407F50798F0621B730B840B950B39F4D2
:101850000A2661F0232B242B252B21F408950A2638
:1018600009F4A140A6958FEF811D811D08950E9466
:101870004A0C0C94BB0C0E94AD0C38F00E94B40CC6
:1018800020F0952311F00C94A40C0C94AA0C1124B4
:101890000C94EF0C0E94CC0C70F3959FC1F3950F44
:1018A00050E0551F629FF001729FBB27F00DB11DE4
:1018B000639FAA27F00DB11DAA1F649F6627B00D74
:1018C000A11D661F829F2227B00DA11D621F739F5D
:1018D000B00DA11D621F839FA00D611D221F749F6B
:1018E0003327A00D611D231F849F600D211D822FB2
:1018F000762F6A2F11249F5750409AF0F1F08823D9
:101900004AF0EE0FFF1FBB1F661F771F881F915005
:101910005040A9F79E3F510580F00C94A40C0C9404
:10192000EF0C5F3FE4F3983ED4F386957795679587
:10193000B795F795E7959F5FC1F7FE2B880F911D2F
:101940009695879597F9089597F99F6780E870E0D5
:1019500060E008959FEF80EC089500240A94161625
:10196000170618060906089500240A94121613068D
:10197000140605060895092E0394000C11F488231B
:1019800052F0BB0F40F4BF2B11F460FF04C06F5F37
:101990007F4F8F4F9F4F089557FD9058440F551F0D
:1019A00059F05F3F71F04795880F97FB991F61F0E1
:1019B0009F3F79F087950895121613061406551F58
:1019C000F2CF4695F1DF08C0161617061806991FC4
:1019D000F1CF86957105610508940895E894BB27B9
:1019E00066277727CB0197F90895A1E21A2EAA1B43
:1019F000BB1BFD010DC0AA1FBB1FEE1FFF1FA217BF
:101A0000B307E407F50720F0A21BB30BE40BF50BBB
:101A1000661F771F881F991F1A9469F76095709544
:101A2000809590959B01AC01BD01CF010895EE0F0B
:101A3000FF1F0590F491E02D09945058BB27AA2769
:101A40000E94350D0C94BB0C0E94AD0C38F00E9426
:101A5000B40C20F039F49F3F19F426F40C94AA0C2E
:101A60000EF4E095E7FB0C94A40CE92F0E94CC0C3B
:101A700058F3BA17620773078407950720F079F4C3
:101A8000A6F50C94EE0C0EF4E0950B2EBA2FA02DBB
:101A90000B01B90190010C01CA01A0011124FF271B
:101AA000591B99F0593F50F4503E68F11A16F04016
:101AB000A22F232F342F4427585FF3CF4695379515
:101AC0002795A795F0405395C9F77EF41F16BA0BDA
:101AD000620B730B840BBAF09150A1F0FF0FBB1F88
:101AE000661F771F881FC2F70EC0BA0F621F731FD1
:101AF000841F48F4879577956795B795F7959E3F2E
:101B000008F0B0CF9395880F08F09927EE0F9795BE
:101B1000879508950E949E0D0C94BB0C0E94B40CF6
:101B200058F00E94AD0C40F029F45F3F29F00C946E
:101B3000A40C51110C94EF0C0C94AA0C0E94CC0C28
:101B400068F39923B1F3552391F3951B550BBB27EC
:101B5000AA2762177307840738F09F5F5F4F220F31
:101B6000331F441FAA1FA9F335D00E2E3AF0E0E828
:101B700032D091505040E695001CCAF72BD0FE2F72
:101B800029D0660F771F881FBB1F26173707480706
:101B9000AB07B0E809F0BB0B802DBF01FF279358BE
:101BA0005F4F3AF09E3F510578F00C94A40C0C94D2
:101BB000EF0C5F3FE4F3983ED4F3869577956795F5
:101BC000B795F7959F5FC9F7880F911D96958795F3
:101BD00097F90895E1E0660F771F881FBB1F621712
:101BE00073078407BA0720F0621B730B840BBA0BD0
:101BF000EE1F88F7E09508950E94D40C88F09F5757
:101C000098F0B92F9927B751B0F0E1F0660F771F20
:101C1000881F991F1AF0BA95C9F714C0B13091F016
:101C20000E94EE0CB1E008950C94EE0C672F782F13
:101C30008827B85F39F0B93FCCF3869577956795DB
:101C4000B395D9F73EF490958095709561957F4F47
:101C50008F4F9F4F08950E94130C08F48FEF089543
:101C60000E94130C880B990B08950F931F93CF9329
:101C7000DF938230910510F482E090E0E091070458
:101C8000F091080430E020E0B0E0A0E0309799F453
:101C90002115310509F44AC0281B390B24303105C0
:101CA000D8F58A819B816115710589F1FB019383C8
:101CB0008283FE0111C04081518102811381481746
:101CC0005907E0F04817590799F4109761F01296F8
:101CD0000C93129713961C933296CF01DF91CF91FC
:101CE0001F910F9108950093070410930804F4CFF7
:101CF0002115310551F04217530738F0A901DB01D6
:101D00009A01BD01DF01F801C1CFEF01F9CF909336
:101D1000080480930704CDCFFE01E20FF31F8193E7
:101D200091932250310939832883D7CF209105041C
:101D300030910604232B41F42091020130910301DC
:101D40003093060420930504209100013091010195
:101D50002115310541F42DB73EB740910401509152
:101D60000501241B350BE0910504F0910604E217F0
:101D7000F307A0F42E1B3F0B2817390778F0AC01AE
:101D80004E5F5F4F2417350748F04E0F5F1F50938B
:101D9000060440930504819391939FCFF0E0E0E027
:101DA0009CCFCF93DF930097E9F0FC013297138229
:101DB0001282A0910704B0910804ED0130E020E008
:101DC0001097A1F420813181820F931F2091050487
:101DD000309106042817390709F061C0F093060412
:101DE000E0930504DF91CF910895EA01CE17DF0754
:101DF000E8F54A815B819E0141155105B1F7E90182
:101E0000FB83EA8349915991C40FD51FEC17FD0755
:101E100061F4808191810296840F951FE901998375
:101E20008883828193819B838A83F0E0E0E012962D
:101E30008D919C9113970097B9F52D913C91119735
:101E4000CD010296820F931F209105043091060464
:101E50002817390739F6309751F510920804109277
:101E60000704B0930604A0930504BCCFD383C283B8
:101E700040815181840F951FC817D90761F44E5FC7
:101E80005F4F88819981480F591F518340838A8110
:101E90009B81938382832115310509F0B0CFF093A4
:101EA0000804E09307049ECFFD01DC01C0CF13823C
:081EB0001282D7CFF894FFCF96
:101EB800000009048000000000008D0240080E03A5
:101EC800AB038F0288068E028E02000000008C028F
:101ED80046086205B4038E02A7068E02920200002D
:101EE80000008B0244082503FC038E02FD068E02C7
:101EF8008E02000000008A0242088E0208048E0248
:101F080027088E028E02000000006C01E0000D011F
:101F1800B9013E011C01300100000000D901000098
:101F2800000096020D0A0053746F707065642120DA
:101F380077616974696E6720666F7220276327006E
:101F48005475726E696E67206F6E204C4544005060
:101F580072654F7065726174696F6E616C20656E31
:101F680074727900426C696E6B696E67204C4544E7
:101F7800206174203120487A00496E69745F656E6B
:101F880074727900436F6E746578743A2054726184
:101F98006E736974696F6E006E616E00696E6600BB
:101FA8006F7666006661756C740073706565643A77
:101FB8002028005265663A2000202D204163743A9B
:101FC800200029205B52504D5D2C20002064757440
:101FD80079206379636C653A2000476F696E6720E2
:101FE800746F2050524500476F696E6720746F20E8
:101FF800494E004F503A53746F7020636F6D6D6196
:102008006E64206465746563746564202D20537460
:102018006F7070696E6700476F696E6720746F2014
:102028004F50005052453A53746F7020636F6D6D76
:10203800616E64206465746563746564202D205343
:10204800746F7070696E67004B70203D2000546992
:10205800203D2000504920636F6E74726F6C2073AE
:10206800656C6563746564005020636F6E74726F8D
:102078006C2073656C6563746564004175746F6D7D
:1020880061746963616C6C7920676F20746F20508C
:1020980072654F7065726174696F6E616C207374DC
:0420A80061746500FA
:00000001FF
