:100000000C9453000C947B000C947B000C947B00AC
:100010000C947B000C947B000C947B000C947B0074
:100020000C947B000C947B000C947B000C947B0064
:100030000C947B000C947B000C947B000C947B0054
:100040000C94AF010C947B000C941F020C94F901EA
:100050000C947B000C947B000C947B000C947B0034
:100060000C947B000C947B0000000000250028000D
:100070002B0000000000240027002A0004040404D0
:100080000404040402020202020203030303030342
:10009000010204081020408001020408102001021F
:1000A00004081020F30311241FBECFEFD8E0DEBFF9
:1000B000CDBF21E0A4E2B1E001C01D92AE3CB20789
:1000C000E1F711E0A0E0B1E0EEE7FBE002C005904F
:1000D0000D92A432B107D9F710E0C3E5D0E004C017
:1000E0002197FE010E941B05C235D107C9F70E9466
:1000F00051020C94BD050C9400003FB7F894809118
:10010000CA019091CB01A091CC01B091CD0126B54F
:10011000A89B05C02F3F19F00196A11DB11D3FBF3F
:10012000BA2FA92F982F8827BC01CD01620F711D0E
:10013000811D911D42E0660F771F881F991F4A9508
:10014000D1F70895AF92BF92CF92DF92EF92FF92D4
:100150000F931F93CF93DF936C017B018B01040FEF
:10016000151FEB015E01AE18BF08C017D10759F08B
:100170006991D601ED91FC910190F081E02DC601CD
:100180000995892B79F7C501DF91CF911F910F91C7
:10019000FF90EF90DF90CF90BF90AF900895FC015B
:1001A000538D448D252F30E0842F90E0821B930BDC
:1001B000541710F0CF96089501970895FC01918D82
:1001C000828D981761F0A28DAE0FBF2FB11D5D9685
:1001D0008C91928D9F5F9F73928F90E008958FEF27
:1001E0009FEF0895FC01918D828D981731F0828DDB
:1001F000E80FF11D858D90E008958FEF9FEF089532
:10020000FC01918D228D892F90E0805C9F4F821B95
:1002100091098F739927089584E291E00E9400016B
:1002200021E0892B09F420E0822F089580E090E0FE
:10023000892B29F00E940C0181110C940000089573
:10024000FC01A48DA80FB92FB11DA35ABF4F2C914B
:10025000848D90E001968F739927848FA689B78942
:100260002C93A089B1898C91837080648C93938D39
:10027000848D981306C00288F389E02D80818F7DDC
:1002800080830895EF92FF920F931F93CF93DF9394
:10029000EC0181E0888F9B8D8C8D98131AC0E889C2
:1002A000F989808185FF15C09FB7F894EE89FF8991
:1002B0006083E889F98980818370806480839FBF2F
:1002C00081E090E0DF91CF911F910F91FF90EF902F
:1002D0000895F62E0B8D10E00F5F1F4F0F7311273F
:1002E000E02E8C8D8E110CC00FB607FCFACFE8897A
:1002F000F989808185FFF5CFCE010E942001F1CFE1
:10030000EB8DEC0FFD2FF11DE35AFF4FF0829FB7ED
:10031000F8940B8FEA89FB8980818062CFCFCF93DD
:10032000DF93EC01888D8823B9F0AA89BB89E8891D
:10033000F9898C9185FD03C0808186FD0DC00FB6C3
:1003400007FCF7CF8C9185FFF2CF808185FFEDCF41
:10035000CE010E942001E9CFDF91CF9108951F9235
:100360000F920FB60F9211242F933F938F939F9369
:10037000AF93BF938091C6019091C701A091C8012E
:10038000B091C9013091C50123E0230F2D3758F5F5
:100390000196A11DB11D2093C5018093C6019093C4
:1003A000C701A093C801B093C9018091CA0190917F
:1003B000CB01A091CC01B091CD010196A11DB11D41
:1003C0008093CA019093CB01A093CC01B093CD014F
:1003D000BF91AF919F918F913F912F910F900FBE41
:1003E0000F901F90189526E8230F0296A11DB11DAE
:1003F000D2CF1F920F920FB60F9211242F933F93DB
:100400004F935F936F937F938F939F93AF93BF931C
:10041000EF93FF9384E291E00E942001FF91EF911E
:10042000BF91AF919F918F917F916F915F914F910C
:100430003F912F910F900FBE0F901F9018951F9214
:100440000F920FB60F9211242F938F939F93EF93D8
:10045000FF93E0913401F09135018081E0913A0100
:10046000F0913B0182FD1BC0908180913D018F5F27
:100470008F7320913E01821741F0E0913D01F0E041
:10048000EC5DFE4F958F80933D01FF91EF919F9121
:100490008F912F910F900FBE0F901F901895808114
:1004A000F4CFCF93DF93CDB7DEB728970FB6F8948C
:1004B000DEBF0FBECDBF789484B5826084BD84B5A5
:1004C000816084BD85B5826085BD85B5816085BD4F
:1004D00080916E00816080936E0010928100809107
:1004E000810082608093810080918100816080938F
:1004F0008100809180008160809380008091B100B4
:1005000084608093B1008091B00081608093B000DE
:1005100080917A00846080937A0080917A00826072
:1005200080937A0080917A00816080937A00809134
:100530007A00806880937A001092C100E0913401C3
:10054000F091350182E08083E0913001F09131013A
:100550001082E0913201F091330180E180831092AA
:100560003C01E0913801F091390186E08083E0910F
:100570003601F0913701808180618083E0913601FE
:10058000F0913701808188608083E0913601F0919D
:100590003701808180688083E0913601F0913701D6
:1005A00080818F7D8083E1EAF0E02491EDE8F0E046
:1005B00084918823C9F090E0880F991FFC01EE58C0
:1005C000FF4F45915491FC01E859FF4FA591B4911B
:1005D0009FB7F894FA0180812095822380838C91C3
:1005E000E22FE823EC939FBF93E4292E4E01F9E01C
:1005F0008F0E911C20E0A22E20E0B22E33243A94DC
:1006000020927C0080917A00806480937A008091AF
:100610007A0086FDFCCF6091780070917900C090DF
:10062000C101D090C201E090C301F090C401072E37
:10063000000C880B990B0E942204A70196010E94CE
:1006400021052DEC3CEC4CEC5DE30E945D04A70120
:1006500096010E9422056093C1017093C2018093AC
:10066000C3019093C40184E291E00E940001181636
:1006700019060CF080C08E010F5F1F4FF02EE12E87
:100680002FB7F8948091C6019091C701A091C8013D
:10069000B091C9012FBF80932C0190932D01A0939D
:1006A0002E01B0932F0184E291E00E94DE0097FFBB
:1006B00092C02FB7F8948091C6019091C701A09184
:1006C000C801B091C9012FBF40912C0150912D015B
:1006D00060912E0170912F01841B950BA60BB70B17
:1006E000409128015091290160912A0170912B01BC
:1006F00084179507A607B707B0F289818230D9F52C
:100700008A81833069F58C81811135C048E050E0E1
:1007100062E171E084E291E00E94A2002FEF81EE9D
:1007200094E0215080409040E1F700C000008E81AD
:100730008130B1F46091C1017091C2018091C30117
:100740009091C4010E948E057D836E833F8238861E
:1007500048E050E06F2D7E2D84E291E00E94A200DF
:100760008A81863041F448E050E06BE171E084E238
:1007700091E00E94A2000E947D002B013C0184E6D2
:10078000C82ED12CE12CF12C0E947D006419750932
:1007900086099709683E734081059105A8F3E1E059
:1007A000CE1AD108E108F108F8EE4F0EF3E05F1E13
:1007B000611C711CC114D104E104F10429F7A114D6
:1007C000B10409F41DCF0E940C01882309F418CF4D
:1007D0000E94000015CFF80181938F01E815F905FB
:1007E00009F04ECF8ACFE4E2F1E01382128288EE64
:1007F00093E0A0E0B0E084839583A683B78384E090
:1008000091E09183808385EC90E09587848784ECE8
:1008100090E09787868780EC90E0918B808B81ECCD
:1008200090E0938B828B82EC90E0958B848B86ECAE
:1008300090E0978B868B118E128E138E148E0895F6
:10084000E89409C097FB3EF490958095709561956A
:100850007F4F8F4F9F4F9923A9F0F92F96E9BB2720
:100860009395F695879577956795B795F111F8CF9C
:10087000FAF4BB0F11F460FF1BC06F5F7F4F8F4F07
:100880009F4F16C0882311F096E911C0772321F0FD
:100890009EE8872F762F05C0662371F096E8862F95
:1008A00070E060E02AF09A95660F771F881FDAF7EC
:1008B000880F9695879597F908950E9470040C9477
:1008C000E1040E94D30438F00E94DA0420F095235A
:1008D00011F00C94CA040C94D00411240C94150546
:1008E0000E94F20470F3959FC1F3950F50E0551FDD
:1008F000629FF001729FBB27F00DB11D639FAA2775
:10090000F00DB11DAA1F649F6627B00DA11D661FC3
:10091000829F2227B00DA11D621F739FB00DA11DE4
:10092000621F839FA00D611D221F749F3327A00D9E
:10093000611D231F849F600D211D822F762F6A2F3A
:1009400011249F5750409AF0F1F088234AF0EE0F9F
:10095000FF1FBB1F661F771F881F91505040A9F7CC
:100960009E3F510580F00C94CA040C9415055F3F1E
:10097000E4F3983ED4F3869577956795B795F79508
:10098000E7959F5FC1F7FE2B880F911D9695879580
:1009900097F9089597F99F6780E870E060E00895FF
:1009A0009FEF80EC089500240A9416161706180687
:1009B0000906089500240A94121613061406050663
:1009C0000895092E0394000C11F4882352F0BB0FF4
:1009D00040F4BF2B11F460FF04C06F5F7F4F8F4F57
:1009E0009F4F089557FD9058440F551F59F05F3F92
:1009F00071F04795880F97FB991F61F09F3F79F041
:100A000087950895121613061406551FF2CF4695C2
:100A1000F1DF08C0161617061806991FF1CF869544
:100A20007105610508940895E894BB276627772728
:100A3000CB0197F90895EE0FFF1F0590F491E02D7B
:100A400009945058BB27AA270E9439050C94E10449
:100A50000E94D30438F00E94DA0420F039F49F3F5A
:100A600019F426F40C94D0040EF4E095E7FB0C94F2
:100A7000CA04E92F0E94F20458F3BA1762077307F9
:100A80008407950720F079F4A6F50C9414050EF46C
:100A9000E0950B2EBA2FA02D0B01B90190010C018E
:100AA000CA01A0011124FF27591B99F0593F50F4A6
:100AB000503E68F11A16F040A22F232F342F4427FE
:100AC000585FF3CF469537952795A795F0405395F6
:100AD000C9F77EF41F16BA0B620B730B840BBAF0C6
:100AE0009150A1F0FF0FBB1F661F771F881FC2F731
:100AF0000EC0BA0F621F731F841F48F48795779545
:100B00006795B795F7959E3F08F0B0CF9395880FFE
:100B100008F09927EE0F9795879508950E94FA049B
:100B200088F09F5798F0B92F9927B751B0F0E1F0AE
:100B3000660F771F881F991F1AF0BA95C9F714C05E
:100B4000B13091F00E941405B1E008950C941405A1
:100B5000672F782F8827B85F39F0B93FCCF3869597
:100B600077956795B395D9F73EF4909580957095F4
:0E0B700061957F4F8F4F9F4F0895F894FFCFF0
:100B7E00000000004201A200CF008F010001DE0044
:100B8E00F20041414141414141410048656C6C6F69
:040B9E007368650013
:00000001FF
