:100000000C9435000C94F5020C945D000C945D008A
:100010000C945D000C945D000C945D000C945D00EC
:100020000C945D000C945D000C945D000C94E20255
:100030000C94CE020C945D000C945D000C945D0059
:100040000C942C020C945D000C949C020C9476028F
:100050000C945D000C945D000C945D000C945D00AC
:100060000C945D000C945D00190311241FBECFEFAA
:10007000D8E0DEBFCDBF22E0AEE5B1E001C01D9209
:10008000AB33B207E1F711E0A0E0B1E0E4ECF0E15E
:1000900002C005900D92AE35B107D9F710E0C5E367
:1000A000D0E004C02197FE010E944707C433D10766
:1000B000C9F70E948F030C9460080C9400004F92C3
:1000C0005F926F927F928F929F92AF92BF92CF92E8
:1000D000DF92EF92FF92CF93DF938FB7F894C090A7
:1000E0006701D0906801E0906901F0906A018FBFCC
:1000F000C0922C02D0922D02E0922E02F0922F029A
:1001000083B190912402892321E009F420E033B1E6
:1001100080912802821791F0809126029091270207
:1001200040912502342341E009F440E0421709F4EC
:1001300067C001969093270280932602209328029D
:100140008091300290913102A0913202B09133023D
:1001500046015701881A990AAA0ABB0A84E688163A
:100160009104A104B104E8F1C0912602D0912702C4
:1001700080912A0290912B02BE01681B790B072EF9
:10018000000C880B990B0E942A062B013C01C5012B
:10019000B4010E9428069B01AC01C301B2010E9478
:1001A000BA0720E030E64AE657E40E94890620E0DC
:1001B00030E04FEA54E40E94BA076093340270932F
:1001C00035028093360290933702D0932B02C0936E
:1001D0002A02C0923002D0923102E0923202F092B2
:1001E0003302DF91CF91FF90EF90DF90CF90BF90DF
:1001F000AF909F908F907F906F905F904F900895F9
:10020000019798CFAF92BF92CF92DF92EF92FF9279
:100210000F931F93CF93DF936C017B018B01040F2E
:10022000151FEB015E01AE18BF08C017D10759F0CA
:100230006991D601ED91FC910190F081E02DC6010C
:100240000995892B79F7C501DF91CF911F910F9106
:10025000FF90EF90DF90CF90BF90AF900895FC019A
:10026000538D448D252F30E0842F90E0821B930B1B
:10027000541710F0CF96089501970895FC01918DC1
:10028000828D981761F0A28DAE0FBF2FB11D5D96C4
:100290008C91928D9F5F9F73928F90E008958FEF66
:1002A0009FEF0895FC01918D828D981731F0828D1A
:1002B000E80FF11D858D90E008958FEF9FEF089571
:1002C000FC01918D228D892F90E0805C9F4F821BD5
:1002D00091098F73992708958BE691E00E94600140
:1002E00021E0892B09F420E0822F089580E090E03E
:1002F000892B29F00E946C0181110C940000089553
:10030000FC01A48DA80FB92FB11DA35ABF4F2C918A
:10031000848D90E001968F739927848FA689B78981
:100320002C93A089B1898C91837080648C93938D78
:10033000848D981306C00288F389E02D80818F7D1B
:1003400080830895EF92FF920F931F93CF93DF93D3
:10035000EC0181E0888F9B8D8C8D98131AC0E88901
:10036000F989808185FF15C09FB7F894EE89FF89D0
:100370006083E889F98980818370806480839FBF6E
:1003800081E090E0DF91CF911F910F91FF90EF906E
:100390000895F62E0B8D10E00F5F1F4F0F7311277E
:1003A000E02E8C8D8E110CC00FB607FCFACFE889B9
:1003B000F989808185FFF5CFCE010E948001F1CFC0
:1003C000EB8DEC0FFD2FF11DE35AFF4FF0829FB72D
:1003D000F8940B8FEA89FB8980818062CFCFCF931D
:1003E000DF93EC01888D8823B9F0AA89BB89E8895D
:1003F000F9898C9185FD03C0808186FD0DC00FB603
:1004000007FCF7CF8C9185FFF2CF808185FFEDCF80
:10041000CE010E948001E9CFDF91CF910895CF9363
:10042000DF93FC0101900020E9F73197AF01481BF1
:10043000590BBC018BE691E00E940201EC0142E005
:1004400050E062E171E08BE691E00E9402018C0FC6
:100450009D1FDF91CF9108951F920F920FB60F92BB
:1004600011242F933F938F939F93AF93BF938091CA
:10047000670190916801A0916901B0916A01309182
:10048000660123E0230F2D3758F50196A11DB11DFC
:10049000209366018093670190936801A09369019E
:1004A000B0936A018091620190916301A09164010F
:1004B000B09165010196A11DB11D809362019093D9
:1004C0006301A0936401B0936501BF91AF919F91C7
:1004D0008F913F912F910F900FBE0F901F90189505
:1004E00026E8230F0296A11DB11DD2CF1F920F92B5
:1004F0000FB60F9211242F933F934F935F936F93F7
:100500007F938F939F93AF93BF93EF93FF938BE66C
:1005100091E00E948001FF91EF91BF91AF919F9177
:100520008F917F916F915F914F913F912F910F909C
:100530000FBE0F901F9018951F920F920FB60F923B
:1005400011242F938F939F93EF93FF93E0917B015F
:10055000F0917C018081E0918101F091820182FD26
:100560001BC09081809184018F5F8F7320918501E2
:10057000821741F0E0918401F0E0E559FE4F958F3C
:1005800080938401FF91EF919F918F912F910F9014
:100590000FBE0F901F9018958081F4CF1F920F927D
:1005A0000FB60F9211248F939F9395B180913902CA
:1005B0008095892385B99F918F910F900FBE0F90E1
:1005C0001F9018951F920F920FB60F9211248F93C0
:1005D0009F9385B190913902892B85B99F918F9115
:1005E0000F900FBE0F901F9018951F920F920FB68D
:1005F0000F9211242F933F934F935F936F937F93A9
:100600008F939F93AF93BF93EF93FF930E945F00ED
:10061000FF91EF91BF91AF919F918F917F916F91DA
:100620005F914F913F912F910F900FBE0F901F90B0
:100630001895EBE6F1E01382128288EE93E0A0E0D9
:10064000B0E084839583A683B78384E091E09183AF
:10065000808385EC90E09587848784EC90E0978791
:10066000868780EC90E0918B808B81EC90E0938B7F
:10067000828B82EC90E0958B848B86EC90E0978B5C
:10068000868B118E128E138E148E81E080933A0227
:1006900082E080933902E4E2F2E088E0808380E146
:1006A0008183138212821482158217821682108629
:1006B0001186128613861486158616861786108A6A
:1006C000118A128A138A52985A9AE9E6F0E08081D8
:1006D00081608083E89A7894E8E0F2E08AE097ED20
:1006E000A3E2BCE380879187A287B387148615862F
:1006F0001686178686EA9BE9A4E4BBE3808B918B80
:10070000A28BB38B148A158A168A178A80E090E030
:10071000A0EAB0E4808F918FA28FB38F0895CF931A
:10072000DF93CDB7DEB728970FB6F894DEBF0FBEC4
:10073000CDBF789484B5826084BD84B5816084BD6A
:1007400085B5826085BD85B5816085BD80916E006F
:10075000816080936E0010928100809181008260A0
:1007600080938100809181008160809381008091DD
:1007700080008160809380008091B10084608093CC
:10078000B1008091B00081608093B00080917A00C8
:10079000846080937A0080917A00826080937A00EE
:1007A00080917A00816080937A0080917A008068DD
:1007B00080937A001092C100E0917B01F0917C015E
:1007C00082E08083E0917701F09178011082E091DE
:1007D0007901F0917A0180E1808310928301E091A8
:1007E0007F01F091800186E08083E0917D01F091AE
:1007F0007E01808180618083E0917D01F0917E01A6
:10080000808188608083E0917D01F0917E0180810C
:1008100080688083E0917D01F0917E0180818F7DF1
:1008200080831092800010928100109285001092B7
:100830008400109289001092880080918100886065
:100840008093810080916F00826080936F0080911F
:100850008100856080938100789494B18091240216
:100860008095892384B985B190912402892B85B91B
:1008700084B120912502922F9095982394B985B147
:10088000822B85B910922B0210922A0210922C0210
:1008900010922D0210922E0210922F02109230020E
:1008A00010923102109232021092330210923402EE
:1008B00010923502109236021092370284B1909154
:1008C0003A02892B84B984B190913902892B84B979
:1008D0001092800010928100109285001092840086
:1008E0008BE990E09093890080938800809181004B
:1008F00088608093810080916F00826080936F0098
:100900008091810085608093810060918800709162
:10091000890090E080E00E94280620E030E0A901F4
:100920000E9489060E942C0870938B0060938A00B5
:1009300080916F00846080936F0095B180913A023E
:100940008095892385B985E191E00E940F025E01BF
:1009500089E0A80EB11C00E010E099249A948BE67F
:1009600091E00E946001089708F44DC1FE013196A4
:100970007F018E2E7F2C2FB7F89480916701909184
:100980006801A0916901B0916A012FBF8093730142
:1009900090937401A0937501B09376018BE691E07A
:1009A0000E943E0197FF47C12FB7F89480916701DD
:1009B00090916801A0916901B0916A012FBF4091A7
:1009C0007301509174016091750170917601841BDF
:1009D000950BA60BB70B40916F0150917001609180
:1009E00071017091720184179507A607B707B0F2DD
:1009F0008981813009F007C18A81833029F5C0904F
:100A00003402D0903502E0903602F090370220E0B8
:100A100030E0A901C701B6010E945B08181624F056
:100A2000F7FAF094F7F8F094C701B6010E942C0889
:100A30007D836E839F82988648E050E0682D772DF5
:100A40008BE691E00E9402018A81863009F0DBC0CA
:100A50006D817E817627672776276F3F710511F0BC
:100A600008F0D1C090E080E00E9428062B013C01F4
:100A700040925E0150925F0160926001709261014C
:100A8000C0903402D0903502E0903602F0903702E8
:100A900020E030E0A901C701B6010E945B081816EA
:100AA00024F0F7FAF094F7F8F094A7019601C30147
:100AB000B2010E944D076B017C0120E030E040E86C
:100AC0005FE360911C0270911D0280911E02909163
:100AD0001F020E94230687FF1EC02091180230913A
:100AE000190240911A0250911B02C701B6010E94DF
:100AF00089062091140230911502409116025091FE
:100B000017020E944E07609314027093150280939F
:100B100016029093170240901002509011026090BC
:100B2000120270901302A3019201C701B6010E9444
:100B300089066B017C01C0920802D0920902E09202
:100B40000A02F0920B02209114023091150240919A
:100B5000160250911702C301B2010E94890620912A
:100B600020023091210240912202509123020E94E2
:100B7000BA079B01AC0120930C0230930D02409305
:100B80000E0250930F02C701B6010E944E076B017F
:100B90007C01C0921C02D0921D02E0921E02F092D3
:100BA0001F0220E030E0A9010E94230687FD3FC01C
:100BB00020E030E040E85FE3C701B6010E945B0837
:100BC000181634F4C12CD12C80E8E82E8FE3F82ECF
:100BD000609188007091890090E080E00E94280672
:100BE000A70196010E9489060E942C0870938B0031
:100BF00060938A0080916F00846080936F0083E32C
:100C000091E00E940F020E945F008FED9EE201972B
:100C1000F1F700C000000115110509F4A0CE0E94F3
:100C20006C01882309F49BCE0E94000098CEC12C51
:100C3000D12C7601CDCFF70181937F01EA15FB0519
:100C400009F099CED5CE0E94650608F481E008959A
:100C5000E89409C097FB3EF4909580957095619556
:100C60007F4F8F4F9F4F9923A9F0F92F96E9BB270C
:100C70009395F695879577956795B795F111F8CF88
:100C8000FAF4BB0F11F460FF1BC06F5F7F4F8F4FF3
:100C90009F4F16C0882311F096E911C0772321F0E9
:100CA0009EE8872F762F05C0662371F096E8862F81
:100CB00070E060E02AF09A95660F771F881FDAF7D8
:100CC000880F9695879597F90895990F0008550F05
:100CD000AA0BE0E8FEEF16161706E807F907C0F0C2
:100CE00012161306E407F50798F0621B730B840BCA
:100CF000950B39F40A2661F0232B242B252B21F4A4
:100D000008950A2609F4A140A6958FEF811D811D43
:100D100008950E949C060C940D070E94FF0638F06F
:100D20000E94060720F0952311F00C94F6060C940F
:100D3000FC0611240C9441070E941E0770F3959F36
:100D4000C1F3950F50E0551F629FF001729FBB27C2
:100D5000F00DB11D639FAA27F00DB11DAA1F649F5E
:100D60006627B00DA11D661F829F2227B00DA11D11
:100D7000621F739FB00DA11D621F839FA00D611D97
:100D8000221F749F3327A00D611D231F849F600DB8
:100D9000211D822F762F6A2F11249F5750409AF0E1
:100DA000F1F088234AF0EE0FFF1FBB1F661F771F6D
:100DB000881F91505040A9F79E3F510580F00C9438
:100DC000F6060C9441075F3FE4F3983ED4F3869512
:100DD00077956795B795F795E7959F5FC1F7FE2BD8
:100DE000880F911D9695879597F9089597F99F67B4
:100DF00080E870E060E008959FEF80EC08950024A3
:100E00000A941616170618060906089500240A946F
:100E100012161306140605060895092E0394000CF5
:100E200011F4882352F0BB0F40F4BF2B11F460FF84
:100E300004C06F5F7F4F8F4F9F4F089557FD9058AD
:100E4000440F551F59F05F3F71F04795880F97FB8E
:100E5000991F61F09F3F79F0879508951216130648
:100E60001406551FF2CF4695F1DF08C01616170677
:100E70001806991FF1CF86957105610508940895AC
:100E8000E894BB2766277727CB0197F90895EE0FE3
:100E9000FF1F0590F491E02D09945058BB27AA2715
:100EA0000E9465070C940D070E94FF0638F00E940F
:100EB000060720F039F49F3F19F426F40C94FC0641
:100EC0000EF4E095E7FB0C94F606E92F0E941E074E
:100ED00058F3BA17620773078407950720F079F46F
:100EE000A6F50C9440070EF4E0950B2EBA2FA02D1A
:100EF0000B01B90190010C01CA01A0011124FF27C7
:100F0000591B99F0593F50F4503E68F11A16F040C1
:100F1000A22F232F342F4427585FF3CF46953795C0
:100F20002795A795F0405395C9F77EF41F16BA0B85
:100F3000620B730B840BBAF09150A1F0FF0FBB1F33
:100F4000661F771F881FC2F70EC0BA0F621F731F7C
:100F5000841F48F4879577956795B795F7959E3FD9
:100F600008F0B0CF9395880F08F09927EE0F97956A
:100F7000879508950E94CE070C940D070E940607DE
:100F800058F00E94FF0640F029F45F3F29F00C94CE
:100F9000F60651110C9441070C94FC060E941E07A2
:100FA00068F39923B1F3552391F3951B550BBB2798
:100FB000AA2762177307840738F09F5F5F4F220FDD
:100FC000331F441FAA1FA9F335D00E2E3AF0E0E8D4
:100FD00032D091505040E695001CCAF72BD0FE2F1E
:100FE00029D0660F771F881FBB1F261737074807B2
:100FF000AB07B0E809F0BB0B802DBF01FF2793586A
:101000005F4F3AF09E3F510578F00C94F6060C9431
:1010100041075F3FE4F3983ED4F386957795679553
:10102000B795F7959F5FC9F7880F911D969587959E
:1010300097F90895E1E0660F771F881FBB1F6217BD
:1010400073078407BA0720F0621B730B840BBA0B7B
:10105000EE1F88F7E09508950E94260788F09F57B5
:1010600098F0B92F9927B751B0F0E1F0660F771FCC
:10107000881F991F1AF0BA95C9F714C0B13091F0C2
:101080000E944007B1E008950C944007672F782F25
:101090008827B85F39F0B93FCCF386957795679587
:1010A000B395D9F73EF490958095709561957F4FF3
:1010B0008F4F9F4F08950E94650608F48FEF0895A3
:0410C000F894FFCFD2
:1010C40000000000A20102012F01EF0160013E01B6
:1010D40052010D0A004D6F746F7220636F6E74724B
:1010E4006F6C20736574757020636F6D706C6574BC
:1010F400652E004D6F746F72207370656564206394
:101104006F6D6D616E6420726563656976656420D8
:0E111400616E642065786563757465642E00F5
:00000001FF
